{
  "contractName": "Keno",
  "abi": [
    {
      "constant": true,
      "inputs": [
        {
          "name": "",
          "type": "uint256"
        }
      ],
      "name": "bets",
      "outputs": [
        {
          "name": "player",
          "type": "address"
        },
        {
          "name": "bet_places",
          "type": "uint8"
        },
        {
          "name": "bet_amount",
          "type": "uint256"
        },
        {
          "name": "result_hits",
          "type": "uint8"
        },
        {
          "name": "win_amount",
          "type": "uint256"
        },
        {
          "name": "id",
          "type": "uint256"
        },
        {
          "name": "time",
          "type": "uint256"
        }
      ],
      "payable": false,
      "stateMutability": "view",
      "type": "function"
    },
    {
      "constant": true,
      "inputs": [],
      "name": "gameMinBet",
      "outputs": [
        {
          "name": "",
          "type": "uint256"
        }
      ],
      "payable": false,
      "stateMutability": "view",
      "type": "function"
    },
    {
      "constant": false,
      "inputs": [],
      "name": "renounceOwnership",
      "outputs": [],
      "payable": false,
      "stateMutability": "nonpayable",
      "type": "function"
    },
    {
      "constant": true,
      "inputs": [],
      "name": "owner",
      "outputs": [
        {
          "name": "",
          "type": "address"
        }
      ],
      "payable": false,
      "stateMutability": "view",
      "type": "function"
    },
    {
      "constant": true,
      "inputs": [],
      "name": "isOwner",
      "outputs": [
        {
          "name": "",
          "type": "bool"
        }
      ],
      "payable": false,
      "stateMutability": "view",
      "type": "function"
    },
    {
      "constant": true,
      "inputs": [
        {
          "name": "",
          "type": "uint256"
        },
        {
          "name": "",
          "type": "uint256"
        }
      ],
      "name": "payoutsTable",
      "outputs": [
        {
          "name": "",
          "type": "uint16"
        }
      ],
      "payable": false,
      "stateMutability": "view",
      "type": "function"
    },
    {
      "constant": true,
      "inputs": [],
      "name": "gameMaxBet",
      "outputs": [
        {
          "name": "",
          "type": "uint256"
        }
      ],
      "payable": false,
      "stateMutability": "view",
      "type": "function"
    },
    {
      "constant": true,
      "inputs": [],
      "name": "currentBet",
      "outputs": [
        {
          "name": "",
          "type": "uint256"
        }
      ],
      "payable": false,
      "stateMutability": "view",
      "type": "function"
    },
    {
      "constant": true,
      "inputs": [
        {
          "name": "",
          "type": "uint256"
        },
        {
          "name": "",
          "type": "uint256"
        }
      ],
      "name": "resultPlaces",
      "outputs": [
        {
          "name": "",
          "type": "uint8"
        }
      ],
      "payable": false,
      "stateMutability": "view",
      "type": "function"
    },
    {
      "constant": false,
      "inputs": [
        {
          "name": "newOwner",
          "type": "address"
        }
      ],
      "name": "transferOwnership",
      "outputs": [],
      "payable": false,
      "stateMutability": "nonpayable",
      "type": "function"
    },
    {
      "inputs": [],
      "payable": false,
      "stateMutability": "nonpayable",
      "type": "constructor"
    },
    {
      "payable": true,
      "stateMutability": "payable",
      "type": "fallback"
    },
    {
      "anonymous": false,
      "inputs": [
        {
          "indexed": true,
          "name": "player",
          "type": "address"
        },
        {
          "indexed": false,
          "name": "bet_places",
          "type": "uint8"
        },
        {
          "indexed": false,
          "name": "bet_amount",
          "type": "uint256"
        },
        {
          "indexed": false,
          "name": "result_hits",
          "type": "uint8"
        },
        {
          "indexed": false,
          "name": "win_amount",
          "type": "uint256"
        },
        {
          "indexed": false,
          "name": "id",
          "type": "uint256"
        }
      ],
      "name": "UserBet",
      "type": "event"
    },
    {
      "anonymous": false,
      "inputs": [
        {
          "indexed": true,
          "name": "player",
          "type": "address"
        },
        {
          "indexed": false,
          "name": "bet_places",
          "type": "uint8"
        },
        {
          "indexed": false,
          "name": "bet_amount",
          "type": "uint256"
        },
        {
          "indexed": false,
          "name": "result_hits",
          "type": "uint8"
        },
        {
          "indexed": false,
          "name": "win_amount",
          "type": "uint256"
        },
        {
          "indexed": false,
          "name": "id",
          "type": "uint256"
        }
      ],
      "name": "PaymentDelay",
      "type": "event"
    },
    {
      "anonymous": false,
      "inputs": [
        {
          "indexed": true,
          "name": "previousOwner",
          "type": "address"
        },
        {
          "indexed": true,
          "name": "newOwner",
          "type": "address"
        }
      ],
      "name": "OwnershipTransferred",
      "type": "event"
    },
    {
      "constant": false,
      "inputs": [
        {
          "name": "numChosen",
          "type": "uint256"
        },
        {
          "name": "arr",
          "type": "uint16[]"
        }
      ],
      "name": "setPlaceBets",
      "outputs": [
        {
          "name": "",
          "type": "bool"
        }
      ],
      "payable": false,
      "stateMutability": "nonpayable",
      "type": "function"
    },
    {
      "constant": true,
      "inputs": [],
      "name": "getMaxPrizeRate",
      "outputs": [
        {
          "name": "",
          "type": "uint256"
        }
      ],
      "payable": false,
      "stateMutability": "view",
      "type": "function"
    },
    {
      "constant": true,
      "inputs": [
        {
          "name": "id",
          "type": "uint256"
        }
      ],
      "name": "getResultPlaces",
      "outputs": [
        {
          "name": "",
          "type": "uint8[]"
        }
      ],
      "payable": false,
      "stateMutability": "view",
      "type": "function"
    },
    {
      "constant": false,
      "inputs": [
        {
          "name": "num",
          "type": "uint256"
        }
      ],
      "name": "setMaxPrizeRate",
      "outputs": [],
      "payable": false,
      "stateMutability": "nonpayable",
      "type": "function"
    },
    {
      "constant": false,
      "inputs": [
        {
          "name": "betArray",
          "type": "uint8[]"
        }
      ],
      "name": "preparingResults",
      "outputs": [
        {
          "name": "",
          "type": "uint8[20]"
        }
      ],
      "payable": false,
      "stateMutability": "nonpayable",
      "type": "function"
    },
    {
      "constant": false,
      "inputs": [
        {
          "name": "betArray",
          "type": "uint8[]"
        },
        {
          "name": "amount",
          "type": "uint256"
        }
      ],
      "name": "userBet",
      "outputs": [
        {
          "name": "",
          "type": "uint8"
        }
      ],
      "payable": true,
      "stateMutability": "payable",
      "type": "function"
    },
    {
      "constant": true,
      "inputs": [],
      "name": "getRandomFactor",
      "outputs": [
        {
          "name": "",
          "type": "uint256"
        }
      ],
      "payable": false,
      "stateMutability": "view",
      "type": "function"
    },
    {
      "constant": false,
      "inputs": [
        {
          "name": "num",
          "type": "uint256"
        }
      ],
      "name": "setRandomFactor",
      "outputs": [],
      "payable": false,
      "stateMutability": "nonpayable",
      "type": "function"
    },
    {
      "constant": true,
      "inputs": [],
      "name": "getTotalUserBets",
      "outputs": [
        {
          "name": "",
          "type": "uint256"
        }
      ],
      "payable": false,
      "stateMutability": "view",
      "type": "function"
    },
    {
      "constant": true,
      "inputs": [],
      "name": "getTotalUserWin",
      "outputs": [
        {
          "name": "",
          "type": "uint256"
        }
      ],
      "payable": false,
      "stateMutability": "view",
      "type": "function"
    },
    {
      "constant": false,
      "inputs": [
        {
          "name": "num",
          "type": "uint256"
        }
      ],
      "name": "setGameMaxBet",
      "outputs": [],
      "payable": false,
      "stateMutability": "nonpayable",
      "type": "function"
    },
    {
      "constant": false,
      "inputs": [
        {
          "name": "num",
          "type": "uint256"
        }
      ],
      "name": "setGameMinBet",
      "outputs": [],
      "payable": false,
      "stateMutability": "nonpayable",
      "type": "function"
    },
    {
      "constant": false,
      "inputs": [
        {
          "name": "amount",
          "type": "uint256"
        }
      ],
      "name": "withdraw",
      "outputs": [],
      "payable": false,
      "stateMutability": "nonpayable",
      "type": "function"
    }
  ],
  "bytecode": "0x60806040523480156200001157600080fd5b50336000806101000a81548173ffffffffffffffffffffffffffffffffffffffff021916908373ffffffffffffffffffffffffffffffffffffffff1602179055506000809054906101000a900473ffffffffffffffffffffffffffffffffffffffff1673ffffffffffffffffffffffffffffffffffffffff16600073ffffffffffffffffffffffffffffffffffffffff167f8be0079c531659141344cd1fd0a4f28419497f9722a3daafe3b4186f6b6457e060405160405180910390a3620000f2600a426200073a6401000000000262001860179091906401000000009004565b6004819055506377359400600881905550620f4240600981905550600f6040519080825280602002602001820160405280156200014c57816020015b6200013862000761565b8152602001906001900390816200012e5790505b50600190805190602001906200016492919062000785565b5061014060405190810160405280600060ff168152602001602860ff168152602001600060ff168152602001600060ff168152602001600060ff168152602001600060ff168152602001600060ff168152602001600060ff168152602001600060ff168152602001600060ff1681525060016002815481101515620001e557fe5b9060005260206000200190600a620001ff929190620007e7565b5061014060405190810160405280600060ff168152602001600f60ff168152602001606460ff168152602001600060ff168152602001600060ff168152602001600060ff168152602001600060ff168152602001600060ff168152602001600060ff168152602001600060ff16815250600160038154811015156200028057fe5b9060005260206000200190600a6200029a929190620007e7565b5061014060405190810160405280600060ff168152602001601460ff168152602001603260ff168152602001609660ff168152602001600060ff168152602001600060ff168152602001600060ff168152602001600060ff168152602001600060ff168152602001600060ff16815250600160048154811015156200031b57fe5b9060005260206000200190600a62000335929190620007e7565b5061014060405190810160405280600061ffff168152602001600061ffff168152602001601e61ffff168152602001604661ffff16815260200161019061ffff168152602001600061ffff168152602001600061ffff168152602001600061ffff168152602001600061ffff168152602001600061ffff1681525060016005815481101515620003c157fe5b9060005260206000200190600a620003db9291906200088a565b5061014060405190810160405280600061ffff168152602001600061ffff168152602001601e61ffff168152602001602861ffff16815260200161012c61ffff1681526020016103e861ffff168152602001600061ffff168152602001600061ffff168152602001600061ffff168152602001600061ffff16815250600160068154811015156200046857fe5b9060005260206000200190600a620004829291906200088a565b5061014060405190810160405280600061ffff168152602001600061ffff168152602001600f61ffff168152602001601461ffff168152602001609661ffff16815260200161032061ffff1681526020016107d061ffff168152602001600061ffff168152602001600061ffff168152602001600061ffff16815250600160078154811015156200050f57fe5b9060005260206000200190600a620005299291906200088a565b5061014060405190810160405280600061ffff168152602001600061ffff168152602001600061ffff168152602001601461ffff168152602001606461ffff16815260200161025861ffff16815260200161070861ffff168152602001610fa061ffff168152602001600061ffff168152602001600061ffff1681525060016008815481101515620005b757fe5b9060005260206000200190600a620005d19291906200088a565b5061014060405190810160405280600061ffff168152602001600061ffff168152602001600061ffff168152602001600f61ffff168152602001603c61ffff16815260200161012c61ffff16815260200161057861ffff168152602001610bb861ffff16815260200161177061ffff168152602001600061ffff16815250600160098154811015156200066057fe5b9060005260206000200190600a6200067a9291906200088a565b5061014060405190810160405280600061ffff168152602001600061ffff168152602001600061ffff168152602001600061ffff168152602001601461ffff16815260200161019061ffff1681526020016104b061ffff1681526020016107d061ffff168152602001610c8061ffff16815260200161271061ffff168152506001600a8154811015156200070a57fe5b9060005260206000200190600a620007249291906200088a565b50600a80819055506014600b8190555062000a3e565b60008082141515156200074c57600080fd5b81838115156200075857fe5b06905092915050565b61014060405190810160405280600a90602082028038833980820191505090505090565b828054828255906000526020600020908101928215620007d4579160200282015b82811115620007d35782518290600a620007c29291906200092e565b5091602001919060010190620007a6565b5b509050620007e39190620009d2565b5090565b82600a600f01601090048101928215620008775791602002820160005b838211156200084557835183826101000a81548161ffff021916908360ff160217905550926020019260020160208160010104928301926001030262000804565b8015620008755782816101000a81549061ffff021916905560020160208160010104928301926001030262000845565b505b50905062000886919062000a03565b5090565b82600a600f016010900481019282156200091b5791602002820160005b83821115620008e957835183826101000a81548161ffff021916908361ffff1602179055509260200192600201602081600101049283019260010302620008a7565b8015620009195782816101000a81549061ffff0219169055600201602081600101049283019260010302620008e9565b505b5090506200092a919062000a03565b5090565b82600a600f01601090048101928215620009bf5791602002820160005b838211156200098d57835183826101000a81548161ffff021916908361ffff16021790555092602001926002016020816001010492830192600103026200094b565b8015620009bd5782816101000a81549061ffff02191690556002016020816001010492830192600103026200098d565b505b509050620009ce919062000a03565b5090565b62000a0091905b80821115620009fc5760008181620009f2919062000a37565b50600101620009d9565b5090565b90565b62000a3491905b8082111562000a3057600081816101000a81549061ffff02191690555060010162000a0a565b5090565b90565b5060009055565b611aff8062000a4e6000396000f300608060405260043610610133576000357c0100000000000000000000000000000000000000000000000000000000900463ffffffff1680631d32824f1461013557806322af00fa146101b257806328a5190c146102555780632e1a7d4d1461028057806338766a6c146102ad5780633bea3da2146102d85780633ef3c14d1461030357806359b63f6c14610385578063715018a6146103b2578063831bc058146103c95780638da5cb5b146103f45780638f32d59b1461044b5780639c9699091461047a578063a271b4f3146104a5578063a5293c3e1461052d578063ae9b1984146105cf578063baf342e214610622578063bbf715661461064f578063d504cb651461067a578063e46c04fb146106a5578063eaf5a7df146106f6578063f2fde38b14610723578063fc42bc1a14610766575b005b6101966004803603810190808035906020019082018035906020019080806020026020016040519081016040528093929190818152602001838360200280828437820191505050505050919291929080359060200190929190505050610793565b604051808260ff1660ff16815260200191505060405180910390f35b3480156101be57600080fd5b506101dd60048036038101908080359060200190929190505050610ec8565b604051808873ffffffffffffffffffffffffffffffffffffffff1673ffffffffffffffffffffffffffffffffffffffff1681526020018760ff1660ff1681526020018681526020018560ff1660ff16815260200184815260200183815260200182815260200197505050505050505060405180910390f35b34801561026157600080fd5b5061026a610f44565b6040518082815260200191505060405180910390f35b34801561028c57600080fd5b506102ab60048036038101908080359060200190929190505050610f61565b005b3480156102b957600080fd5b506102c2610feb565b6040518082815260200191505060405180910390f35b3480156102e457600080fd5b506102ed610ff1565b6040518082815260200191505060405180910390f35b34801561030f57600080fd5b5061032e60048036038101908080359060200190929190505050610ffb565b6040518080602001828103825283818151815260200191508051906020019060200280838360005b83811015610371578082015181840152602081019050610356565b505050509050019250505060405180910390f35b34801561039157600080fd5b506103b06004803603810190808035906020019092919050505061108c565b005b3480156103be57600080fd5b506103c76110a9565b005b3480156103d557600080fd5b506103de61117b565b6040518082815260200191505060405180910390f35b34801561040057600080fd5b50610409611198565b604051808273ffffffffffffffffffffffffffffffffffffffff1673ffffffffffffffffffffffffffffffffffffffff16815260200191505060405180910390f35b34801561045757600080fd5b506104606111c1565b604051808215151515815260200191505060405180910390f35b34801561048657600080fd5b5061048f611218565b6040518082815260200191505060405180910390f35b3480156104b157600080fd5b506105136004803603810190808035906020019092919080359060200190820180359060200190808060200260200160405190810160405280939291908181526020018383602002808284378201915050505050509192919290505050611235565b604051808215151515815260200191505060405180910390f35b34801561053957600080fd5b5061059160048036038101908080359060200190820180359060200190808060200260200160405190810160405280939291908181526020018383602002808284378201915050505050509192919290505050611356565b6040518082601460200280838360005b838110156105bc5780820151818401526020810190506105a1565b5050505090500191505060405180910390f35b3480156105db57600080fd5b506106046004803603810190808035906020019092919080359060200190929190505050611502565b604051808261ffff1661ffff16815260200191505060405180910390f35b34801561062e57600080fd5b5061064d60048036038101908080359060200190929190505050611549565b005b34801561065b57600080fd5b50610664611566565b6040518082815260200191505060405180910390f35b34801561068657600080fd5b5061068f61156c565b6040518082815260200191505060405180910390f35b3480156106b157600080fd5b506106da6004803603810190808035906020019092919080359060200190929190505050611572565b604051808260ff1660ff16815260200191505060405180910390f35b34801561070257600080fd5b50610721600480360381019080803590602001909291905050506115b4565b005b34801561072f57600080fd5b50610764600480360381019080803573ffffffffffffffffffffffffffffffffffffffff1690602001909291905050506115d1565b005b34801561077257600080fd5b50610791600480360381019080803590602001909291905050506115f0565b005b60008060006107a06119d8565b60008060008734101561081b576040517f08c379a000000000000000000000000000000000000000000000000000000000815260040180806020018281038252601c8152602001807f596f75206e6f7420656e6f756768205452582070726f76696465642e0000000081525060200191505060405180910390fd5b6009548810156108b9576040517f08c379a00000000000000000000000000000000000000000000000000000000081526004018080602001828103825260398152602001807f596f7520706c616365207468652062657420616d6f756e7420736d616c6c657281526020017f207468616e20746865206d696e696d756d20616d6f756e742e0000000000000081525060400191505060405180910390fd5b600854881115610957576040517f08c379a00000000000000000000000000000000000000000000000000000000081526004018080602001828103825260378152602001807f596f7520736574207468652062657420616d6f756e742067726561746572207481526020017f68616e20746865206d6178696d756d20616d6f756e742e00000000000000000081525060400191505060405180910390fd5b3073ffffffffffffffffffffffffffffffffffffffff163161098961097a610ff1565b8a61160d90919063ffffffff16565b1115610a23576040517f08c379a00000000000000000000000000000000000000000000000000000000081526004018080602001828103825260268152602001807f5468697320636f6e7472616374206e6f7420656e6f756768205452582070726f81526020017f76696465642e000000000000000000000000000000000000000000000000000081525060400191505060405180910390fd5b610a388860055461164b90919063ffffffff16565b6005819055506007549550885194506002851080610a565750600a85115b15610ac9576040517f08c379a000000000000000000000000000000000000000000000000000000000815260040180806020018281038252600f8152602001807f426574204172726179206572726f72000000000000000000000000000000000081525060200191505060405180910390fd5b610ad28961166c565b15610b45576040517f08c379a000000000000000000000000000000000000000000000000000000000815260040180806020018281038252601c8152602001807f5468657265206172652074776f2073696d696c61722076616c7565730000000081525060200191505060405180910390fd5b610b4e89611356565b9350610b5a8985611774565b92508360036000888152602001908152602001600020906014610b7e9291906119fc565b506000915060008360ff161115610d1457600185815481101515610b9e57fe5b906000526020600020016001840360ff16600a81101515610bbb57fe5b601091828204019190066002029054906101000a900461ffff16905060008161ffff161115610d1357610c0e600a610c008361ffff168b61160d90919063ffffffff16565b61180d90919063ffffffff16565b9150610c258260065461164b90919063ffffffff16565b600681905550813073ffffffffffffffffffffffffffffffffffffffff1631101515610c97573373ffffffffffffffffffffffffffffffffffffffff166108fc839081150290604051600060405180830381858888f19350505050158015610c91573d6000803e3d6000fd5b50610d12565b3373ffffffffffffffffffffffffffffffffffffffff167f2839cd245ac8001927414e943df3dcf9ddab6961cb878af41229060c6a45275e868a86868b604051808660ff1660ff1681526020018581526020018460ff1660ff1681526020018381526020018281526020019550505050505060405180910390a25b5b5b60e0604051908101604052803373ffffffffffffffffffffffffffffffffffffffff1681526020018660ff1681526020018981526020018460ff1681526020018381526020018781526020014281525060026000600754815260200190815260200160002060008201518160000160006101000a81548173ffffffffffffffffffffffffffffffffffffffff021916908373ffffffffffffffffffffffffffffffffffffffff16021790555060208201518160000160146101000a81548160ff021916908360ff1602179055506040820151816001015560608201518160020160006101000a81548160ff021916908360ff1602179055506080820151816003015560a0820151816004015560c082015181600501559050503373ffffffffffffffffffffffffffffffffffffffff167fde3855af05c0968e40b3e62853e65a5ed2832cf642af9d378ffa6b5a78adf984868a86868b604051808660ff1660ff1681526020018581526020018460ff1660ff1681526020018381526020018281526020019550505050505060405180910390a260076000815480929190600101919050555082965050505050505092915050565b60026020528060005260406000206000915090508060000160009054906101000a900473ffffffffffffffffffffffffffffffffffffffff16908060000160149054906101000a900460ff16908060010154908060020160009054906101000a900460ff16908060030154908060040154908060050154905087565b6000610f4e6111c1565b1515610f5957600080fd5b600454905090565b610f696111c1565b1515610f7457600080fd5b3073ffffffffffffffffffffffffffffffffffffffff16318111151515610f9a57600080fd5b610fa2611198565b73ffffffffffffffffffffffffffffffffffffffff166108fc829081150290604051600060405180830381858888f19350505050158015610fe7573d6000803e3d6000fd5b5050565b60095481565b6000600a54905090565b60606003600083815260200190815260200160002080548060200260200160405190810160405280929190818152602001828054801561108057602002820191906000526020600020906000905b82829054906101000a900460ff1660ff16815260200190600101906020826000010492830192600103820291508084116110495790505b50505050509050919050565b6110946111c1565b151561109f57600080fd5b8060098190555050565b6110b16111c1565b15156110bc57600080fd5b600073ffffffffffffffffffffffffffffffffffffffff166000809054906101000a900473ffffffffffffffffffffffffffffffffffffffff1673ffffffffffffffffffffffffffffffffffffffff167f8be0079c531659141344cd1fd0a4f28419497f9722a3daafe3b4186f6b6457e060405160405180910390a360008060006101000a81548173ffffffffffffffffffffffffffffffffffffffff021916908373ffffffffffffffffffffffffffffffffffffffff160217905550565b60006111856111c1565b151561119057600080fd5b600654905090565b60008060009054906101000a900473ffffffffffffffffffffffffffffffffffffffff16905090565b60008060009054906101000a900473ffffffffffffffffffffffffffffffffffffffff1673ffffffffffffffffffffffffffffffffffffffff163373ffffffffffffffffffffffffffffffffffffffff1614905090565b60006112226111c1565b151561122d57600080fd5b600554905090565b6000806112406111c1565b151561124b57600080fd5b600a83511415156112c4576040517f08c379a00000000000000000000000000000000000000000000000000000000081526004018080602001828103825260178152602001807f4572726f72206172722e6c656e67746820213d2031302e00000000000000000081525060200191505060405180910390fd5b600090505b82518160ff16101561134b57828160ff168151811015156112e657fe5b906020019060200201516001858154811015156112ff57fe5b906000526020600020018260ff16600a8110151561131957fe5b601091828204019190066002026101000a81548161ffff021916908361ffff16021790555080806001019150506112c9565b600191505092915050565b61135e6119d8565b6000806000805b600b548360ff161415156114945781806001019250506113a9600161139b605061138d611837565b61186090919063ffffffff16565b61164b90919063ffffffff16565b90506113d68261ffff166113c88360045461164b90919063ffffffff16565b61164b90919063ffffffff16565b6004819055506000151561144c85601480602002604051908101604052809291908260148015611441576020028201916000905b82829054906101000a900460ff1660ff168152602001906001019060208260000104928301926001038202915080841161140a5790505b505050505083611885565b1515141561148f5780848460ff1660148110151561146657fe5b602091828204019190066101000a81548160ff021916908360ff16021790555082806001019350505b611365565b836014806020026040519081016040528092919082601480156114f2576020028201916000905b82829054906101000a900460ff1660ff16815260200190600101906020826000010492830192600103820291508084116114bb5790505b5050505050945050505050919050565b60018281548110151561151157fe5b9060005260206000200181600a8110151561152857fe5b60109182820401919006600202915091509054906101000a900461ffff1681565b6115516111c1565b151561155c57600080fd5b8060048190555050565b60085481565b60075481565b60036020528160005260406000208181548110151561158d57fe5b9060005260206000209060209182820401919006915091509054906101000a900460ff1681565b6115bc6111c1565b15156115c757600080fd5b8060088190555050565b6115d96111c1565b15156115e457600080fd5b6115ed816118de565b50565b6115f86111c1565b151561160357600080fd5b80600a8190555050565b60008060008414156116225760009150611644565b828402905082848281151561163357fe5b0414151561164057600080fd5b8091505b5092915050565b600080828401905083811015151561166257600080fd5b8091505092915050565b600080600080600091505b84518260ff16101561176757600090505b8160ff168160ff16101561170457848260ff168151811015156116a757fe5b9060200190602002015160ff16838260ff168154811015156116c557fe5b90600052602060002090602091828204019190069054906101000a900460ff1660ff1614156116f7576001935061176c565b8080600101915050611688565b848260ff1681518110151561171557fe5b90602001906020020151838360ff1681548110151561173057fe5b90600052602060002090602091828204019190066101000a81548160ff021916908360ff1602179055508180600101925050611677565b600093505b505050919050565b60008060008060009250600091505b600b548260ff16101561180157600090505b85518160ff1610156117f457848260ff166014811015156117b257fe5b602002015160ff16868260ff168151811015156117cb57fe5b9060200190602002015160ff1614156117e75782806001019350505b8080600101915050611795565b8180600101925050611783565b82935050505092915050565b60008060008311151561181f57600080fd5b828481151561182a57fe5b0490508091505092915050565b600060045461185060644261186090919063ffffffff16565b6001430303406001900401905090565b600080821415151561187157600080fd5b818381151561187c57fe5b06905092915050565b600080600090505b60148160ff1610156118d257838160ff166014811015156118aa57fe5b602002015160ff168360ff1614156118c557600191506118d7565b808060010191505061188d565b600091505b5092915050565b600073ffffffffffffffffffffffffffffffffffffffff168173ffffffffffffffffffffffffffffffffffffffff161415151561191a57600080fd5b8073ffffffffffffffffffffffffffffffffffffffff166000809054906101000a900473ffffffffffffffffffffffffffffffffffffffff1673ffffffffffffffffffffffffffffffffffffffff167f8be0079c531659141344cd1fd0a4f28419497f9722a3daafe3b4186f6b6457e060405160405180910390a3806000806101000a81548173ffffffffffffffffffffffffffffffffffffffff021916908373ffffffffffffffffffffffffffffffffffffffff16021790555050565b61028060405190810160405280601490602082028038833980820191505090505090565b82805482825590600052602060002090601f01602090048101928215611a925791602002820160005b83821115611a6357835183826101000a81548160ff021916908360ff1602179055509260200192600101602081600001049283019260010302611a25565b8015611a905782816101000a81549060ff0219169055600101602081600001049283019260010302611a63565b505b509050611a9f9190611aa3565b5090565b611ad091905b80821115611acc57600081816101000a81549060ff021916905550600101611aa9565b5090565b905600a165627a7a723058201c30e4504008cd4a9c212b905596f30b50e9bd2bee50dc833ad4227339cb85000029",
  "source": "pragma solidity ^0.4.23;\r\nimport \"./SafeMath.sol\";\r\nimport \"./Ownable.sol\";\r\n\r\n//\r\ncontract Keno is Ownable {\r\n\tusing SafeMath for uint;\r\n\r\n\tstruct Bet{\r\n\t\taddress player;\r\n\t\tuint8 bet_places;\r\n\t\tuint bet_amount;\r\n\t\tuint8 result_hits;\r\n\t\tuint win_amount;\r\n\t\tuint id;\r\n\t\tuint time;\r\n\t}\r\n\r\n    uint16[10][] public payoutsTable;\r\n\tmapping(uint => Bet) public bets;\r\n\tmapping(uint => uint8[]) public resultPlaces;\r\n\r\n\tuint private randomFactor;\r\n\tuint private totalUserBets;\r\n\tuint private totalUserWin;\r\n\r\n\tuint public currentBet;\r\n\tuint public gameMaxBet;\r\n\tuint public gameMinBet;\r\n\r\n\t//\r\n    uint private maxPrizeRate;\r\n\tuint private totalResult;\r\n\r\n\tevent UserBet(address indexed player, uint8 bet_places, uint bet_amount, uint8 result_hits, uint win_amount, uint id);\r\n\tevent PaymentDelay(address indexed player, uint8 bet_places, uint bet_amount, uint8 result_hits, uint win_amount, uint id);\r\n\r\n\t//contract constructor\r\n\tconstructor() public {\r\n\t\trandomFactor = now.mod(10);\r\n\t\tgameMaxBet = 2000000000;//2000 TRX\r\n\t\tgameMinBet = 1000000;//1 TRX\r\n\t    // PAYOUT WITH NUMBERS CHOSEN (2->10 numbers)\r\n\t    payoutsTable = new uint16[10][](15);\r\n\t    //           hits:    1     2     3     4     5     6     7     8     9     10\r\n\t    payoutsTable[2]  = [0    ,40   ,0    ,0    ,0    ,0    ,0    ,0    ,0    ,0     ]; //-> pays = pays/10\r\n\t    payoutsTable[3]  = [0    ,15   ,100  ,0    ,0    ,0    ,0    ,0    ,0    ,0     ]; //-> pays\r\n\t    payoutsTable[4]  = [0    ,20   ,50   ,150  ,0    ,0    ,0    ,0    ,0    ,0     ]; //-> pays\r\n\t    payoutsTable[5]  = [0    ,0    ,30   ,70   ,400  ,0    ,0    ,0    ,0    ,0     ]; //-> pays\r\n\t    payoutsTable[6]  = [0    ,0    ,30   ,40   ,300  ,1000 ,0    ,0    ,0    ,0     ]; //-> pays\r\n\t    payoutsTable[7]  = [0    ,0    ,15   ,20   ,150  ,800  ,2000 ,0    ,0    ,0     ]; //-> pays\r\n\t    payoutsTable[8]  = [0    ,0    ,0    ,20   ,100  ,600  ,1800 ,4000 ,0    ,0     ]; //-> pays\r\n\t    payoutsTable[9]  = [0    ,0    ,0    ,15   ,60   ,300  ,1400 ,3000 ,6000 ,0     ]; //-> pays\r\n\t    payoutsTable[10] = [0    ,0    ,0    ,0    ,20   ,400  ,1200 ,2000 ,3200 ,10000 ]; //-> pays\r\n\t\t//\r\n\t\tmaxPrizeRate = 10;\r\n\t\ttotalResult = 20;\r\n\t}\r\n\r\n\tfunction setPlaceBets(uint numChosen, uint16[] arr) public onlyOwner returns(bool){\r\n\t    if (arr.length != 10) revert(\"Error arr.length != 10.\");\r\n\t    for(uint8 i = 0; i < arr.length; i++){\r\n\t        payoutsTable[numChosen][i] = arr[i];\r\n\t    }\r\n\t    return true;\r\n\t}\r\n\r\n\tfunction getMaxPrizeRate() public view returns(uint) {\r\n        return maxPrizeRate;\r\n\t}\r\n\r\n\tfunction getResultPlaces(uint id) public view returns(uint8[]) {\r\n        return resultPlaces[id];\r\n\t}\r\n\r\n\r\n\tfunction setMaxPrizeRate(uint num) public onlyOwner {\r\n        maxPrizeRate = num;\r\n\t}\r\n\r\n\tfunction checkArraySameValue(uint8[] arr) private view returns(bool) {\r\n\t\tuint8[] arr_copy;\r\n\t\tfor(uint8 i = 0; i < arr.length; i++){\r\n\t        for(uint8 j = 0; j < i; j++){\r\n    \t        if(arr_copy[j] == arr[i])return true;\r\n    \t    }\r\n    \t    arr_copy[i] = arr[i];\r\n\t    }\r\n        return false;\r\n\t}\r\n\r\n\tfunction check2ArraySameValue(uint8[] arr, uint8[20] arr2) private view returns(uint8) {\r\n\t    uint8 same = 0;\r\n\t\tfor(uint8 i = 0; i < totalResult; i++){\r\n\t        for(uint8 j = 0; j < arr.length; j++){\r\n    \t        if(arr[j] == arr2[i])same++;\r\n    \t    }\r\n\t    }\r\n        return same;\r\n\t}\r\n\r\n\tfunction checkValueInArray(uint8[20] arr, uint8 value) private view returns(bool) {\r\n\t\tfor(uint8 i = 0; i < arr.length; i++){\r\n    \t    if(value == arr[i])return true;\r\n\t    }\r\n        return false;\r\n\t}\r\n\r\n\t//test\r\n\t/*struct Bet2Test{\r\n\t\tuint8 a; uint16 b; uint8 c1; uint8 c2; uint8 c3; uint8 c4; uint8 c5; uint8 c6;\r\n\t\tuint8 c7; uint8 c8; uint8 c9; uint8 c10; uint8 same; uint time;\r\n\t}\r\n\tmapping(uint => Bet2Test) public Bet2test;\r\n\tuint public currentBet2a;*/\r\n\t//uint8[10] public resultArray;\r\n\t//end test\r\n\r\n\tfunction preparingResults(uint8[] betArray) public returns(uint8[20]) {\r\n\t   uint8[20] resultArray;\r\n\t   uint8 a; uint16 b;\r\n\t   while(a != totalResult){ \r\n\t\t    b++;\r\n\t\t    uint result = random_uint().mod(80).add(1);\r\n\t    \trandomFactor = randomFactor.add(result).add(b);\r\n\t    \tif(checkValueInArray(resultArray, uint8(result)) == false){\r\n        \t    resultArray[a] = uint8(result);\r\n        \t    a++;\r\n\t    \t}\r\n\t    } \r\n\r\n\t\t//test\r\n\t    /*uint8 same = check2ArraySameValue(betArray, resultArray);\r\n\t\tBet2test[currentBet2a] = Bet2Test({\r\n\t\t\ta: a, b: b,\r\n\t\t\tc1: resultArray[0], c2: resultArray[1], c3: resultArray[2], c4: resultArray[3], c5: resultArray[4],\r\n\t\t\tc6: resultArray[5], c7: resultArray[6], c8: resultArray[7], c9: resultArray[8], c10: resultArray[9],\r\n\t\t\tsame: same,\r\n\t\t\ttime: now\r\n\t\t});*/\r\n\t\t//end test\r\n        return resultArray;\r\n\t}\r\n\r\n\t//\r\n\tfunction userBet(uint8[] betArray, uint amount) public payable returns(uint8){\r\n\t\tif (msg.value < amount) revert(\"You not enough TRX provided.\");\r\n\t\tif (amount < gameMinBet) revert(\"You place the bet amount smaller than the minimum amount.\");\r\n\t\tif (amount > gameMaxBet) revert(\"You set the bet amount greater than the maximum amount.\");\r\n\t\tif (amount.mul(getMaxPrizeRate()) > address(this).balance) revert(\"This contract not enough TRX provided.\");\r\n        totalUserBets = totalUserBets.add(amount);\r\n\t\t//\r\n        uint id = currentBet;\r\n\t\tuint bet_places = betArray.length;\r\n\t\tif(bet_places < 2 || bet_places > 10)revert(\"Bet Array error\");\r\n\t\tif(checkArraySameValue(betArray))revert(\"There are two similar values\");\r\n\t\tuint8[20] memory resultArray = preparingResults(betArray);\r\n\t\tuint8 hits = check2ArraySameValue(betArray, resultArray);\r\n\t\tresultPlaces[id] = resultArray;\r\n\r\n\t\t/*string memory resultString = \"\";\r\n\t\tfor(uint8 i = 0; i < resultArray.length; i++){\r\n\t\t\tif(i < resultArray.length-1){\r\n    \t    \tresultString = strConcat(resultString, uint2str(uint(resultArray[i])));\r\n    \t    \tresultString = strConcat(resultString, \"-\");\r\n\t\t\t} else{\r\n    \t    \tresultString = strConcat(resultString, uint2str(uint(resultArray[i])));\r\n\t\t\t}\r\n\t    }*/\r\n\r\n\t\t//\r\n\t\tuint win_amount = 0;\r\n\t\tif(hits > 0){\r\n\t\t\tuint16 pays = payoutsTable[bet_places][hits-1];\r\n\t\t\tif(pays > 0){\r\n\t\t\t\twin_amount = amount.mul(uint256(pays)).div(10);\r\n\t\t\t\ttotalUserWin = totalUserWin.add(win_amount);\r\n\t\t\t\tif(address(this).balance >= win_amount){\r\n\t\t\t\t\tmsg.sender.transfer(win_amount);\r\n\t\t\t\t} else{\r\n\t\t\t\t\temit PaymentDelay(msg.sender, uint8(bet_places), amount, hits, win_amount, id);\r\n\t\t\t\t}\r\n\t\t\t}\r\n\t\t}\r\n\t\tbets[currentBet] = Bet({\r\n\t\t\tplayer: msg.sender,\r\n\t\t\tbet_places: uint8(bet_places),\r\n\t\t\tbet_amount: amount,\r\n\t\t\tresult_hits: hits,\r\n\t\t\twin_amount: win_amount,\r\n\t\t\tid: id,\r\n\t\t\ttime: now\r\n\t\t});\r\n\t\temit UserBet(msg.sender, uint8(bet_places), amount, hits, win_amount, id);\r\n\t\tcurrentBet++;\r\n\t\treturn hits;\r\n\t}\r\n\r\n\r\n\t/*function strConcat(string _a, string _b) private returns (string){\r\n        bytes memory _ba = bytes(_a);\r\n        bytes memory _bb = bytes(_b);\r\n        string memory abcde = new string(_ba.length + _bb.length);\r\n        bytes memory babcde = bytes(abcde);\r\n        uint k = 0;\r\n        for (uint i = 0; i < _ba.length; i++) babcde[k++] = _ba[i];\r\n        for (i = 0; i < _bb.length; i++) babcde[k++] = _bb[i];\r\n        return string(babcde);\r\n    }\r\n\r\n\tfunction uint2str(uint i) internal pure returns (string){\r\n        if (i == 0) return \"0\";\r\n        uint j = i;\r\n        uint length;\r\n        while (j != 0){\r\n            length++;\r\n            j /= 10;\r\n        }\r\n        bytes memory bstr = new bytes(length);\r\n        uint k = length - 1;\r\n        while (i != 0){\r\n            bstr[k--] = byte(48 + i % 10);\r\n            i /= 10;\r\n        }\r\n        return string(bstr);\r\n    }*/\r\n\r\n\tfunction getRandomFactor() public onlyOwner view returns(uint) {\r\n        \treturn randomFactor;\r\n\t}\r\n\r\n\tfunction setRandomFactor(uint num) public onlyOwner {\r\n        \trandomFactor = num;\r\n\t}\r\n\r\n\tfunction getTotalUserBets() public onlyOwner view returns(uint) {\r\n        \treturn totalUserBets;\r\n\t}\r\n\r\n\tfunction getTotalUserWin() public onlyOwner view returns(uint) {\r\n        \treturn totalUserWin;\r\n\t}\r\n\r\n\r\n\tfunction setGameMaxBet(uint num) public onlyOwner {\r\n        \tgameMaxBet = num;\r\n\t}\r\n\r\n\tfunction setGameMinBet(uint num) public onlyOwner {\r\n        \tgameMinBet = num;\r\n\t}\r\n\t//random\r\n\tfunction random_uint() private view returns (uint256) {\r\n\t\treturn uint256(blockhash(block.number-1-block.timestamp.mod(100))) + randomFactor;\r\n\t}\r\n\r\n\t//withdraw\r\n\tfunction withdraw(uint amount) public onlyOwner {\r\n\t\trequire(amount <= address(this).balance);\r\n\t\towner().transfer(amount);\r\n\t}\r\n\r\n    function() public payable{}\r\n}\r\n",
  "sourcePath": "C:\\wamp64\\www\\Working\\Blockchain\\Tron\\Keno\\contracts\\Keno.sol",
  "compiler": {
    "name": "solc",
    "version": "0.4.24-develop.2018.8.28+commit.3ba0cdec.mod.Emscripten.clang"
  },
  "schemaVersion": "2.0.1",
  "updatedAt": "2019-01-04T17:31:38.139Z"
}